{"abi":[{"type":"function","name":"allocateAndEnterPosition","inputs":[{"name":"onBehalf","type":"address","internalType":"address"},{"name":"vault","type":"address","internalType":"address"},{"name":"depositAssetAmount","type":"uint256","internalType":"uint256"},{"name":"borrowAmount","type":"uint256","internalType":"uint256"},{"name":"depositData","type":"bytes","internalType":"bytes"},{"name":"allocationData","type":"tuple[]","internalType":"struct MorphoAllocation[]","components":[{"name":"vault","type":"address","internalType":"address"},{"name":"feeAmount","type":"uint256","internalType":"uint256"},{"name":"withdrawals","type":"tuple[]","internalType":"struct Withdrawal[]","components":[{"name":"marketParams","type":"tuple","internalType":"struct MarketParams","components":[{"name":"loanToken","type":"address","internalType":"address"},{"name":"collateralToken","type":"address","internalType":"address"},{"name":"oracle","type":"address","internalType":"address"},{"name":"irm","type":"address","internalType":"address"},{"name":"lltv","type":"uint256","internalType":"uint256"}]},{"name":"amount","type":"uint128","internalType":"uint128"}]}]}],"outputs":[],"stateMutability":"payable"},{"type":"function","name":"allocateAndMigratePosition","inputs":[{"name":"onBehalf","type":"address","internalType":"address"},{"name":"vault","type":"address","internalType":"address"},{"name":"migrateFrom","type":"address","internalType":"address"},{"name":"allocationData","type":"tuple[]","internalType":"struct MorphoAllocation[]","components":[{"name":"vault","type":"address","internalType":"address"},{"name":"feeAmount","type":"uint256","internalType":"uint256"},{"name":"withdrawals","type":"tuple[]","internalType":"struct Withdrawal[]","components":[{"name":"marketParams","type":"tuple","internalType":"struct MarketParams","components":[{"name":"loanToken","type":"address","internalType":"address"},{"name":"collateralToken","type":"address","internalType":"address"},{"name":"oracle","type":"address","internalType":"address"},{"name":"irm","type":"address","internalType":"address"},{"name":"lltv","type":"uint256","internalType":"uint256"}]},{"name":"amount","type":"uint128","internalType":"uint128"}]}]}],"outputs":[],"stateMutability":"payable"},{"type":"function","name":"balanceOfBorrowShares","inputs":[{"name":"account","type":"address","internalType":"address"},{"name":"vault","type":"address","internalType":"address"}],"outputs":[{"name":"borrowShares","type":"uint256","internalType":"uint256"}],"stateMutability":"view"},{"type":"function","name":"balanceOfCollateral","inputs":[{"name":"account","type":"address","internalType":"address"},{"name":"vault","type":"address","internalType":"address"}],"outputs":[{"name":"collateralBalance","type":"uint256","internalType":"uint256"}],"stateMutability":"view"},{"type":"function","name":"claimRewards","inputs":[{"name":"onBehalf","type":"address","internalType":"address"},{"name":"vault","type":"address","internalType":"address"}],"outputs":[{"name":"rewards","type":"uint256[]","internalType":"uint256[]"}],"stateMutability":"nonpayable"},{"type":"function","name":"convertBorrowSharesToAssets","inputs":[{"name":"vault","type":"address","internalType":"address"},{"name":"borrowShares","type":"uint256","internalType":"uint256"}],"outputs":[{"name":"assets","type":"uint256","internalType":"uint256"}],"stateMutability":"nonpayable"},{"type":"function","name":"enterPosition","inputs":[{"name":"onBehalf","type":"address","internalType":"address"},{"name":"vault","type":"address","internalType":"address"},{"name":"depositAssetAmount","type":"uint256","internalType":"uint256"},{"name":"borrowAmount","type":"uint256","internalType":"uint256"},{"name":"depositData","type":"bytes","internalType":"bytes"}],"outputs":[],"stateMutability":"nonpayable"},{"type":"function","name":"exitPosition","inputs":[{"name":"onBehalf","type":"address","internalType":"address"},{"name":"vault","type":"address","internalType":"address"},{"name":"receiver","type":"address","internalType":"address"},{"name":"sharesToRedeem","type":"uint256","internalType":"uint256"},{"name":"assetToRepay","type":"uint256","internalType":"uint256"},{"name":"redeemData","type":"bytes","internalType":"bytes"}],"outputs":[],"stateMutability":"nonpayable"},{"type":"function","name":"forceWithdraw","inputs":[{"name":"account","type":"address","internalType":"address"},{"name":"vault","type":"address","internalType":"address"},{"name":"data","type":"bytes","internalType":"bytes"}],"outputs":[{"name":"requestId","type":"uint256","internalType":"uint256"}],"stateMutability":"nonpayable"},{"type":"function","name":"healthFactor","inputs":[{"name":"borrower","type":"address","internalType":"address"},{"name":"vault","type":"address","internalType":"address"}],"outputs":[{"name":"borrowed","type":"uint256","internalType":"uint256"},{"name":"collateralValue","type":"uint256","internalType":"uint256"},{"name":"maxBorrow","type":"uint256","internalType":"uint256"}],"stateMutability":"nonpayable"},{"type":"function","name":"initializeMarket","inputs":[{"name":"vault","type":"address","internalType":"address"},{"name":"irm","type":"address","internalType":"address"},{"name":"lltv","type":"uint256","internalType":"uint256"}],"outputs":[],"stateMutability":"nonpayable"},{"type":"function","name":"initiateWithdraw","inputs":[{"name":"onBehalf","type":"address","internalType":"address"},{"name":"vault","type":"address","internalType":"address"},{"name":"data","type":"bytes","internalType":"bytes"}],"outputs":[{"name":"requestId","type":"uint256","internalType":"uint256"}],"stateMutability":"nonpayable"},{"type":"function","name":"isApproved","inputs":[{"name":"user","type":"address","internalType":"address"},{"name":"operator","type":"address","internalType":"address"}],"outputs":[{"name":"","type":"bool","internalType":"bool"}],"stateMutability":"view"},{"type":"function","name":"liquidate","inputs":[{"name":"liquidateAccount","type":"address","internalType":"address"},{"name":"vault","type":"address","internalType":"address"},{"name":"sharesToLiquidate","type":"uint256","internalType":"uint256"},{"name":"debtToRepay","type":"uint256","internalType":"uint256"}],"outputs":[{"name":"sharesToLiquidator","type":"uint256","internalType":"uint256"}],"stateMutability":"nonpayable"},{"type":"function","name":"marketParams","inputs":[{"name":"vault","type":"address","internalType":"address"}],"outputs":[{"name":"","type":"tuple","internalType":"struct MarketParams","components":[{"name":"loanToken","type":"address","internalType":"address"},{"name":"collateralToken","type":"address","internalType":"address"},{"name":"oracle","type":"address","internalType":"address"},{"name":"irm","type":"address","internalType":"address"},{"name":"lltv","type":"uint256","internalType":"uint256"}]}],"stateMutability":"view"},{"type":"function","name":"migratePosition","inputs":[{"name":"onBehalf","type":"address","internalType":"address"},{"name":"vault","type":"address","internalType":"address"},{"name":"migrateFrom","type":"address","internalType":"address"}],"outputs":[],"stateMutability":"nonpayable"},{"type":"function","name":"name","inputs":[],"outputs":[{"name":"","type":"string","internalType":"string"}],"stateMutability":"pure"},{"type":"function","name":"onMorphoFlashLoan","inputs":[{"name":"assets","type":"uint256","internalType":"uint256"},{"name":"data","type":"bytes","internalType":"bytes"}],"outputs":[],"stateMutability":"nonpayable"},{"type":"function","name":"onMorphoLiquidate","inputs":[{"name":"repaidAssets","type":"uint256","internalType":"uint256"},{"name":"data","type":"bytes","internalType":"bytes"}],"outputs":[],"stateMutability":"nonpayable"},{"type":"function","name":"onMorphoRepay","inputs":[{"name":"assetToRepay","type":"uint256","internalType":"uint256"},{"name":"data","type":"bytes","internalType":"bytes"}],"outputs":[],"stateMutability":"nonpayable"},{"type":"function","name":"setApproval","inputs":[{"name":"operator","type":"address","internalType":"address"},{"name":"approved","type":"bool","internalType":"bool"}],"outputs":[],"stateMutability":"nonpayable"},{"type":"event","name":"ApprovalUpdated","inputs":[{"name":"user","type":"address","indexed":true,"internalType":"address"},{"name":"operator","type":"address","indexed":true,"internalType":"address"},{"name":"approved","type":"bool","indexed":false,"internalType":"bool"}],"anonymous":false},{"type":"event","name":"EnterPosition","inputs":[{"name":"user","type":"address","indexed":true,"internalType":"address"},{"name":"vault","type":"address","indexed":true,"internalType":"address"},{"name":"depositAssets","type":"uint256","indexed":false,"internalType":"uint256"},{"name":"borrowShares","type":"uint256","indexed":false,"internalType":"uint256"},{"name":"vaultSharesReceived","type":"uint256","indexed":false,"internalType":"uint256"},{"name":"wasMigrated","type":"bool","indexed":false,"internalType":"bool"}],"anonymous":false},{"type":"event","name":"ExitPosition","inputs":[{"name":"user","type":"address","indexed":true,"internalType":"address"},{"name":"vault","type":"address","indexed":true,"internalType":"address"},{"name":"borrowSharesRepaid","type":"uint256","indexed":false,"internalType":"uint256"},{"name":"vaultSharesBurned","type":"uint256","indexed":false,"internalType":"uint256"},{"name":"profitsWithdrawn","type":"uint256","indexed":false,"internalType":"uint256"}],"anonymous":false},{"type":"event","name":"LiquidatePosition","inputs":[{"name":"liquidator","type":"address","indexed":true,"internalType":"address"},{"name":"user","type":"address","indexed":true,"internalType":"address"},{"name":"vault","type":"address","indexed":true,"internalType":"address"},{"name":"borrowSharesRepaid","type":"uint256","indexed":false,"internalType":"uint256"},{"name":"vaultSharesToLiquidator","type":"uint256","indexed":false,"internalType":"uint256"}],"anonymous":false},{"type":"error","name":"CannotEnterPosition","inputs":[]},{"type":"error","name":"CannotExitPositionWithinCooldownPeriod","inputs":[]},{"type":"error","name":"CannotForceWithdraw","inputs":[{"name":"account","type":"address","internalType":"address"}]},{"type":"error","name":"CannotLiquidateZeroShares","inputs":[]},{"type":"error","name":"InsufficientAssetsForRepayment","inputs":[{"name":"assetsToRepay","type":"uint256","internalType":"uint256"},{"name":"assetsWithdrawn","type":"uint256","internalType":"uint256"}]},{"type":"error","name":"InsufficientSharesHeld","inputs":[]},{"type":"error","name":"InvalidLendingRouter","inputs":[]},{"type":"error","name":"LiquidatorHasPosition","inputs":[]},{"type":"error","name":"NoExistingPosition","inputs":[]},{"type":"error","name":"NotAuthorized","inputs":[{"name":"operator","type":"address","internalType":"address"},{"name":"user","type":"address","internalType":"address"}]},{"type":"error","name":"ReentrancyGuardReentrantCall","inputs":[]},{"type":"error","name":"SafeERC20FailedOperation","inputs":[{"name":"token","type":"address","internalType":"address"}]}],"bytecode":{"object":"0x6080604052348015600e575f5ffd5b5061477a8061001c5f395ff3fe608060405260043610610162575f3560e01c8063c1342574116100c6578063db9b71701161007c578063f1e42ccd11610057578063f1e42ccd1461042b578063f79d438714610457578063f7d6f6da14610476575f5ffd5b8063db9b7170146103ce578063de13c617146103ed578063ef9a0b611461040c575f5ffd5b8063cf7ea196116100ac578063cf7ea19614610364578063da35e28314610383578063da3a855f146103af575f5ffd5b8063c134257414610326578063c139cc9814610345575f5ffd5b80634fb2a3201161011b57806398139810116101015780639813981014610293578063a389783e146102b2578063c0b5de7614610307575f5ffd5b80634fb2a3201461023a578063576f5c4014610259575f5ffd5b80631e164b631161014b5780631e164b63146101db57806331f57072146101ee5780634a7f87e81461020d575f5ffd5b806305b4591c1461016657806306fdde0314610187575b5f5ffd5b348015610171575f5ffd5b506101856101803660046135d9565b610489565b005b348015610192575f5ffd5b50604080518082018252600681527f4d6f7270686f0000000000000000000000000000000000000000000000000000602082015290516101d2919061364f565b60405180910390f35b6101856101e93660046136c0565b6105a0565b3480156101f9575f5ffd5b506101856102083660046135d9565b6106a1565b348015610218575f5ffd5b5061022c610227366004613737565b61084b565b6040519081526020016101d2565b348015610245575f5ffd5b50610185610254366004613798565b610917565b348015610264575f5ffd5b506102786102733660046137d6565b610ac2565b604080519384526020840192909252908201526060016101d2565b34801561029e575f5ffd5b5061022c6102ad36600461380d565b610def565b3480156102bd575f5ffd5b506102f76102cc3660046137d6565b6001600160a01b039182165f9081526020818152604080832093909416825291909152205460ff1690565b60405190151581526020016101d2565b348015610312575f5ffd5b5061022c610321366004613737565b610f54565b348015610331575f5ffd5b5061022c610340366004613837565b61104f565b348015610350575f5ffd5b5061018561035f36600461387a565b6113ce565b34801561036f575f5ffd5b5061018561037e3660046135d9565b61162e565b34801561038e575f5ffd5b506103a261039d3660046138c2565b6116a4565b6040516101d291906138dd565b3480156103ba575f5ffd5b5061022c6103c93660046137d6565b6117b6565b3480156103d9575f5ffd5b506101856103e8366004613947565b611889565b3480156103f8575f5ffd5b50610185610407366004613973565b611963565b348015610417575f5ffd5b506101856104263660046139ea565b611a91565b348015610436575f5ffd5b5061044a6104453660046137d6565b611d8e565b6040516101d29190613a73565b348015610462575f5ffd5b5061022c6104713660046137d6565b611f1c565b610185610484366004613ab5565b611fef565b3373bbbbbbbbbb9cc5e90e3b3af64bdaf62c37eeffcb146104a8575f5ffd5b5f8080808080806104bb888a018a613c25565b96509650965096509650965096505f6104e4888888856104db575f6104dd565b885b88886120f6565b90508115610504576105016001600160a01b03871686308e612253565b50895b8a81101561054d576040517f1a389e7b000000000000000000000000000000000000000000000000000000008152600481018c9052602481018290526044015b60405180910390fd5b8a81036105646001600160a01b03881687836122d5565b61058c6001600160a01b03881673bbbbbbbbbb9cc5e90e3b3af64bdaf62c37eeffcb8e61230b565b808060025d50505050505050505050505050565b8484336001600160a01b038316148015906105dc57506001600160a01b0382165f9081526020818152604080832033845290915290205460ff16155b15610624576040517fc55ddc970000000000000000000000000000000000000000000000000000000081523360048201526001600160a01b0383166024820152604401610544565b61062c612332565b6106378685856123ba565b6106428787876113ce565b61064a61256b565b806001600160a01b031663b35cb45d6040518163ffffffff1660e01b81526004015f604051808303815f87803b158015610682575f5ffd5b505af1158015610694573d5f5f3e3d5ffd5b5050505050505050505050565b3373bbbbbbbbbb9cc5e90e3b3af64bdaf62c37eeffcb146106c0575f5ffd5b5f80808080806106d287890189613cc5565b9550955095509550955095506106f7868686868d6106f09190613d7f565b8686612595565b805f5d506040805160a080820183525f8083526020808401829052838501829052606080850183905260809485018390526001600160a01b038b811680855260018085528886208951808b018b5281548516815291015481860190815289519788018a528d8416885294870182905286890191909152511690840152519282019290925291517f50d8cd4b00000000000000000000000000000000000000000000000000000000815273bbbbbbbbbb9cc5e90e3b3af64bdaf62c37eeffcb916350d8cd4b916107d19185918f91908d903090600401613d92565b60408051808303815f875af11580156107ec573d5f5f3e3d5ffd5b505050506040513d601f19601f820116820180604052508101906108109190613e1d565b90508060015d5061083f6001600160a01b03861673bbbbbbbbbb9cc5e90e3b3af64bdaf62c37eeffcb8c61230b565b50505050505050505050565b5f610854612332565b5f5f6108608787610ac2565b92505091508082116108a9576040517f535afa470000000000000000000000000000000000000000000000000000000081526001600160a01b0388166004820152602401610544565b6108b5868887876127a7565b9250856001600160a01b031663b35cb45d6040518163ffffffff1660e01b81526004015f604051808303815f87803b1580156108ef575f5ffd5b505af1158015610901573d5f5f3e3d5ffd5b50505050505061090f61256b565b949350505050565b336001600160a01b031673e335d314bd4ef7dd44f103dc124fefb7ce63ec956001600160a01b031663c4d5608a6040518163ffffffff1660e01b8152600401602060405180830381865afa158015610971573d5f5f3e3d5ffd5b505050506040513d601f19601f820116820180604052508101906109959190613e3f565b6001600160a01b0316146109a7575f5ffd5b6001600160a01b038381165f9081526001602052604090205416156109ca575f5ffd5b6001600160a01b0383165f9081526001602081905260409091200154156109ef575f5ffd5b6040805180820182526001600160a01b03848116825260208083018581528783165f90815260019283905294909420925183547fffffffffffffffffffffffff0000000000000000000000000000000000000000169216919091178255915191015573bbbbbbbbbb9cc5e90e3b3af64bdaf62c37eeffcb638c1358a2610a74856116a4565b6040518263ffffffff1660e01b8152600401610a9091906138dd565b5f604051808303815f87803b158015610aa7575f5ffd5b505af1158015610ab9573d5f5f3e3d5ffd5b50505050505050565b5f5f5f5f610acf856116a4565b90505f610adb82612879565b6040517f151c1ade00000000000000000000000000000000000000000000000000000000815290915073bbbbbbbbbb9cc5e90e3b3af64bdaf62c37eeffcb9063151c1ade90610b2e9085906004016138dd565b5f604051808303815f87803b158015610b45575f5ffd5b505af1158015610b57573d5f5f3e3d5ffd5b50506040517f93c52062000000000000000000000000000000000000000000000000000000008152600481018490526001600160a01b038a1660248201525f925073bbbbbbbbbb9cc5e90e3b3af64bdaf62c37eeffcb91506393c5206290604401606060405180830381865afa158015610bd3573d5f5f3e3d5ffd5b505050506040513d601f19601f82011682018060405250810190610bf79190613e77565b6040517f5c60e39a000000000000000000000000000000000000000000000000000000008152600481018490529091505f9073bbbbbbbbbb9cc5e90e3b3af64bdaf62c37eeffcb90635c60e39a9060240160c060405180830381865afa158015610c63573d5f5f3e3d5ffd5b505050506040513d601f19601f82011682018060405250810190610c879190613ee0565b60208301519091506fffffffffffffffffffffffffffffffff1615610cfa57610cf382602001516fffffffffffffffffffffffffffffffff1682606001516fffffffffffffffffffffffffffffffff1683604001516fffffffffffffffffffffffffffffffff166128a8565b9650610cfe565b5f96505b6040517faea910780000000000000000000000000000000000000000000000000000000081526001600160a01b038a811660048301526ec097ce7bc90715b34b9f100000000091908a169063aea91078906024016020604051808303815f875af1158015610d6e573d5f5f3e3d5ffd5b505050506040513d601f19601f82011682018060405250810190610d929190613f8b565b83604001516fffffffffffffffffffffffffffffffff16610db39190613fa2565b610dbd9190613fb9565b9550670de0b6b3a7640000846080015187610dd89190613fa2565b610de29190613fb9565b9450505050509250925092565b5f5f610dfa846116a4565b6040517f151c1ade00000000000000000000000000000000000000000000000000000000815290915073bbbbbbbbbb9cc5e90e3b3af64bdaf62c37eeffcb9063151c1ade90610e4d9084906004016138dd565b5f604051808303815f87803b158015610e64575f5ffd5b505af1158015610e76573d5f5f3e3d5ffd5b505050505f73bbbbbbbbbb9cc5e90e3b3af64bdaf62c37eeffcb6001600160a01b0316635c60e39a610ea784612879565b6040518263ffffffff1660e01b8152600401610ec591815260200190565b60c060405180830381865afa158015610ee0573d5f5f3e3d5ffd5b505050506040513d601f19601f82011682018060405250810190610f049190613ee0565b905080606001516fffffffffffffffffffffffffffffffff1681604001516fffffffffffffffffffffffffffffffff1685610f3f9190613fa2565b610f499190613fb9565b925050505b92915050565b5f8484336001600160a01b03831614801590610f9157506001600160a01b0382165f9081526020818152604080832033845290915290205460ff16155b15610fd9576040517fc55ddc970000000000000000000000000000000000000000000000000000000081523360048201526001600160a01b0383166024820152604401610544565b610fe1612332565b610fed868887876127a7565b9250610ff761256b565b806001600160a01b031663b35cb45d6040518163ffffffff1660e01b81526004015f604051808303815f87803b15801561102f575f5ffd5b505af1158015611041573d5f5f3e3d5ffd5b505050505050949350505050565b5f611058612332565b825f03611091576040517f96efcff800000000000000000000000000000000000000000000000000000000815260040160405180910390fd5b6040517f268b4bae00000000000000000000000000000000000000000000000000000000815233600482018190526001600160a01b0386166024830152905f9073e335d314bd4ef7dd44f103dc124fefb7ce63ec959063268b4bae906044016040805180830381865afa15801561110a573d5f5f3e3d5ffd5b505050506040513d601f19601f8201168201806040525081019061112e9190613ff1565b80519091506001600160a01b031615611173576040517fb11aae4800000000000000000000000000000000000000000000000000000000815260040160405180910390fd5b5f61117e88886117b6565b9050805f036111b9576040517f3a513ebe00000000000000000000000000000000000000000000000000000000815260040160405180910390fd5b6040517fcc351ac50000000000000000000000000000000000000000000000000000000081526001600160a01b0384811660048301528981166024830152604482018890526064820183905288169063cc351ac5906084015f604051808303815f87803b158015611228575f5ffd5b505af115801561123a573d5f5f3e3d5ffd5b505050505f61124c84898b8a8a6128ca565b6040517f98dce16d0000000000000000000000000000000000000000000000000000000081526001600160a01b0387811660048301528c8116602483015260448201849052929750909250908916906398dce16d906064015f604051808303815f87803b1580156112bb575f5ffd5b505af11580156112cd573d5f5f3e3d5ffd5b50505050818503611362576040517f0ffd849b0000000000000000000000000000000000000000000000000000000081526001600160a01b03808b1660048301528916602482015273e335d314bd4ef7dd44f103dc124fefb7ce63ec9590630ffd849b906044015f604051808303815f87803b15801561134b575f5ffd5b505af115801561135d573d5f5f3e3d5ffd5b505050505b876001600160a01b0316896001600160a01b0316856001600160a01b03167f45cadc716620e58c3367933d480438f9e3e2bed42fb5efdc99c74100dc3dcfb884896040516113ba929190918252602082015260400190565b60405180910390a45050505061090f61256b565b8282336001600160a01b0383161480159061140a57506001600160a01b0382165f9081526020818152604080832033845290915290205460ff16155b15611452576040517fc55ddc970000000000000000000000000000000000000000000000000000000081523360048201526001600160a01b0383166024820152604401610544565b61145a612332565b6040517f46f74dce0000000000000000000000000000000000000000000000000000000081526001600160a01b038416600482015273e335d314bd4ef7dd44f103dc124fefb7ce63ec95906346f74dce90602401602060405180830381865afa1580156114c9573d5f5f3e3d5ffd5b505050506040513d601f19601f820116820180604052508101906114ed9190614058565b611523576040517f5ea7f17e00000000000000000000000000000000000000000000000000000000815260040160405180910390fd5b6040517f576f5c400000000000000000000000000000000000000000000000000000000081526001600160a01b03868116600483015285811660248301525f919085169063576f5c40906044016060604051808303815f875af115801561158c573d5f5f3e3d5ffd5b505050506040513d601f19601f820116820180604052508101906115b09190614073565b505090506115d086865f8460405180602001604052805f815250896129d7565b506115d961256b565b806001600160a01b031663b35cb45d6040518163ffffffff1660e01b81526004015f604051808303815f87803b158015611611575f5ffd5b505af1158015611623573d5f5f3e3d5ffd5b505050505050505050565b3373bbbbbbbbbb9cc5e90e3b3af64bdaf62c37eeffcb1461164d575f5ffd5b5f8061165b838501856137d6565b90925090506116756001600160a01b038316823088612253565b61169d6001600160a01b03831673bbbbbbbbbb9cc5e90e3b3af64bdaf62c37eeffcb8761230b565b5050505050565b6040805160a0810182525f80825260208201819052918101829052606081018290526080810191909152610f4e82836001600160a01b03166338d52e0f6040518163ffffffff1660e01b8152600401602060405180830381865afa15801561170e573d5f5f3e3d5ffd5b505050506040513d601f19601f820116820180604052508101906117329190613e3f565b6040805160a080820183525f8083526020808401829052838501829052606080850183905260809485018390526001600160a01b039788168084526001808452938790208751808901895281548b16815294015484840190815287519586018852978916855291840182905294830152519094169184019190915290519082015290565b5f5f6117c1836116a4565b905073bbbbbbbbbb9cc5e90e3b3af64bdaf62c37eeffcb6393c520626117e683612879565b6040517fffffffff0000000000000000000000000000000000000000000000000000000060e084901b16815260048101919091526001600160a01b0387166024820152604401606060405180830381865afa158015611847573d5f5f3e3d5ffd5b505050506040513d601f19601f8201168201806040525081019061186b9190613e77565b604001516fffffffffffffffffffffffffffffffff16949350505050565b336001600160a01b038316036118dc576040517fc55ddc970000000000000000000000000000000000000000000000000000000081523360048201526001600160a01b0383166024820152604401610544565b335f818152602081815260408083206001600160a01b0387168085529083529281902080547fffffffffffffffffffffffffffffffffffffffffffffffffffffffffffffff001686151590811790915590519081529192917fe3caa8efbcfc0f7d074a09e7b584ab65e18c1a13c9a4c27a286f9f093e113068910160405180910390a35050565b8585336001600160a01b0383161480159061199f57506001600160a01b0382165f9081526020818152604080832033845290915290205460ff16155b156119e7576040517fc55ddc970000000000000000000000000000000000000000000000000000000081523360048201526001600160a01b0383166024820152604401610544565b6119ef612332565b611a318888888888888080601f0160208091040260200160405190810160405280939291908181526020018383808284375f92018290525092506129d7915050565b611a3961256b565b806001600160a01b031663b35cb45d6040518163ffffffff1660e01b81526004015f604051808303815f87803b158015611a71575f5ffd5b505af1158015611a83573d5f5f3e3d5ffd5b505050505050505050505050565b8686336001600160a01b03831614801590611acd57506001600160a01b0382165f9081526020818152604080832033845290915290205460ff16155b15611b15576040517fc55ddc970000000000000000000000000000000000000000000000000000000081523360048201526001600160a01b0383166024820152604401610544565b611b1d612332565b611b278989612c30565b5f886001600160a01b03166338d52e0f6040518163ffffffff1660e01b8152600401602060405180830381865afa158015611b64573d5f5f3e3d5ffd5b505050506040513d601f19601f82011682018060405250810190611b889190613e3f565b90505f808715611be057611bd68c8c858d8d8d8d8d8080601f0160208091040260200160405190810160405280939291908181526020018383808284375f92019190915250612d6392505050565b9092509050611c3f565b611c238c8c855f8d8c8c8080601f0160208091040260200160405190810160405280939291908181526020018383808284375f920191909152506120f692505050565b90508015611c3f57611c3f6001600160a01b0384168b836122d5565b611c498c8c6117b6565b5f03611cd9576040517f0ffd849b0000000000000000000000000000000000000000000000000000000081526001600160a01b03808e1660048301528c16602482015273e335d314bd4ef7dd44f103dc124fefb7ce63ec9590630ffd849b906044015f604051808303815f87803b158015611cc2575f5ffd5b505af1158015611cd4573d5f5f3e3d5ffd5b505050505b60408051838152602081018b90529081018290526001600160a01b03808d1691908e16907fdb7501b1f4aef4c17a2cb691aa195f90f496d894a16314682e14210cad39aaf99060600160405180910390a3505050611d3561256b565b806001600160a01b031663b35cb45d6040518163ffffffff1660e01b81526004015f604051808303815f87803b158015611d6d575f5ffd5b505af1158015611d7f573d5f5f3e3d5ffd5b50505050505050505050505050565b60608282336001600160a01b03831614801590611dcc57506001600160a01b0382165f9081526020818152604080832033845290915290205460ff16155b15611e14576040517fc55ddc970000000000000000000000000000000000000000000000000000000081523360048201526001600160a01b0383166024820152604401610544565b611e1c612332565b836001600160a01b03166366ab3b7286611e3688886117b6565b6040517fffffffff0000000000000000000000000000000000000000000000000000000060e085901b1681526001600160a01b03909216600483015260248201526044015f604051808303815f875af1158015611e95573d5f5f3e3d5ffd5b505050506040513d5f823e601f3d908101601f19168201604052611ebc919081019061409e565b9250611ec661256b565b806001600160a01b031663b35cb45d6040518163ffffffff1660e01b81526004015f604051808303815f87803b158015611efe575f5ffd5b505af1158015611f10573d5f5f3e3d5ffd5b50505050505092915050565b5f5f611f27836116a4565b905073bbbbbbbbbb9cc5e90e3b3af64bdaf62c37eeffcb6393c52062611f4c83612879565b6040517fffffffff0000000000000000000000000000000000000000000000000000000060e084901b16815260048101919091526001600160a01b0387166024820152604401606060405180830381865afa158015611fad573d5f5f3e3d5ffd5b505050506040513d601f19601f82011682018060405250810190611fd19190613e77565b602001516fffffffffffffffffffffffffffffffff16949350505050565b8787336001600160a01b0383161480159061202b57506001600160a01b0382165f9081526020818152604080832033845290915290205460ff16155b15612073576040517fc55ddc970000000000000000000000000000000000000000000000000000000081523360048201526001600160a01b0383166024820152604401610544565b61207b612332565b6120868985856123ba565b6120948a8a8a8a8a8a611963565b61209c61256b565b806001600160a01b031663b35cb45d6040518163ffffffff1660e01b81526004015f604051808303815f87803b1580156120d4575f5ffd5b505af11580156120e6573d5f5f3e3d5ffd5b5050505050505050505050505050565b5f806001600160a01b0385161561210d578461210f565b875b90505f61211c89896117b6565b6040517f98476c2b0000000000000000000000000000000000000000000000000000000081526001600160a01b038481166004830152602482018890528b81166044830152919250908916906398476c2b906064015f604051808303815f87803b158015612188575f5ffd5b505af115801561219a573d5f5f3e3d5ffd5b505050506121ab8888878c86612e32565b6001600160a01b038616612247576040517f0db734d40000000000000000000000000000000000000000000000000000000081526001600160a01b03891690630db734d490612204908c90899086908a9060040161414a565b6020604051808303815f875af1158015612220573d5f5f3e3d5ffd5b505050506040513d601f19601f820116820180604052508101906122449190613f8b565b92505b50509695505050505050565b6040516001600160a01b0384811660248301528381166044830152606482018390526122cf9186918216906323b872dd906084015b604051602081830303815290604052915060e01b6020820180517bffffffffffffffffffffffffffffffffffffffffffffffffffffffff8381831617835250505050612f34565b50505050565b6040516001600160a01b0383811660248301526044820183905261230691859182169063a9059cbb90606401612288565b505050565b6001600160a01b03831661231e57505050565b6123066001600160a01b0384168383612fb9565b7f9b779b17422d0df92223018b32b4d1fa46e071723d6817e2486d003becc55f005c1561238b576040517f3ee5aeb500000000000000000000000000000000000000000000000000000000815260040160405180910390fd5b6123b860017f9b779b17422d0df92223018b32b4d1fa46e071723d6817e2486d003becc55f005b90613076565b565b5f6123c4846116a4565b90505f805b838110156125015773fd32fa2ca22c76dd6e550706ad913fc6ce91c75d63833947fd8686848181106123fd576123fd614177565b905060200281019061240f91906141a4565b6020013587878581811061242557612425614177565b905060200281019061243791906141a4565b6124459060208101906138c2565b88888681811061245757612457614177565b905060200281019061246991906141a4565b6124779060408101906141e0565b886040518663ffffffff1660e01b81526004016124979493929190614243565b5f604051808303818588803b1580156124ae575f5ffd5b505af11580156124c0573d5f5f3e3d5ffd5b50505050508484828181106124d7576124d7614177565b90506020028101906124e991906141a4565b6124f7906020013583613d7f565b91506001016123c9565b5080341461169d576040517f08c379a000000000000000000000000000000000000000000000000000000000815260206004820152601760248201527f496e73756666696369656e742066656520616d6f756e740000000000000000006044820152606401610544565b6123b85f7f9b779b17422d0df92223018b32b4d1fa46e071723d6817e2486d003becc55f006123b2565b5f6001600160a01b038216156126f1576125b96001600160a01b038616838661230b565b6040517fda3a855f0000000000000000000000000000000000000000000000000000000081526001600160a01b038881166004830152878116602483015283169063da3a855f90604401602060405180830381865afa15801561261e573d5f5f3e3d5ffd5b505050506040513d601f19601f820116820180604052508101906126429190613f8b565b604080516020810182525f815290517fef9a0b610000000000000000000000000000000000000000000000000000000081529192506001600160a01b0384169163ef9a0b61916126bf918b918b91309188917fffffffffffffffffffffffffffffffffffffffffffffffffffffffffffffffff9190600401614383565b5f604051808303815f87803b1580156126d6575f5ffd5b505af11580156126e8573d5f5f3e3d5ffd5b50505050612791565b6127056001600160a01b038616878661230b565b6040517f127af7f90000000000000000000000000000000000000000000000000000000081526001600160a01b0387169063127af7f99061274e9087908b9088906004016143da565b6020604051808303815f875af115801561276a573d5f5f3e3d5ffd5b505050506040513d601f19601f8201168201806040525081019061278e9190613f8b565b90505b61279d8787878461307d565b9695505050505050565b5f5f6127b385876117b6565b9050805f036127ee576040517f3a513ebe00000000000000000000000000000000000000000000000000000000815260040160405180910390fd5b6040517f57831a040000000000000000000000000000000000000000000000000000000081526001600160a01b038716906357831a0490612839908890859089908990600401614401565b6020604051808303815f875af1158015612855573d5f5f3e3d5ffd5b505050506040513d601f19601f8201168201806040525081019061279d9190613f8b565b5f8160405160200161288b91906138dd565b604051602081830303815290604052805190602001209050919050565b5f61090f846128b8600185613d7f565b6128c5620f424087613d7f565b613291565b5f5f5f6128d6876116a4565b90505f6128e38789611f1c565b9050848110156128f1578094505b8151604080516001600160a01b039283166020820152918b168282015280518083038201815260608301918290527fd8eabcb80000000000000000000000000000000000000000000000000000000090915273bbbbbbbbbb9cc5e90e3b3af64bdaf62c37eeffcb9163d8eabcb8916129739186918c918c918c91606401614446565b60408051808303815f875af115801561298e573d5f5f3e3d5ffd5b505050506040513d601f19601f820116820180604052508101906129b29190613e1d565b5093506129bf8789611f1c565b6129c990826144d2565b925050509550959350505050565b5f856001600160a01b03166338d52e0f6040518163ffffffff1660e01b8152600401602060405180830381865afa158015612a14573d5f5f3e3d5ffd5b505050506040513d601f19601f82011682018060405250810190612a389190613e3f565b6040517f70a082310000000000000000000000000000000000000000000000000000000081526001600160a01b0389811660048301529192505f918816906370a0823190602401602060405180830381865afa158015612a9a573d5f5f3e3d5ffd5b505050506040513d601f19601f82011682018060405250810190612abe9190613f8b565b1115612af6576040517f1bb8b5b100000000000000000000000000000000000000000000000000000000815260040160405180910390fd5b8415612b1157612b116001600160a01b038216333088612253565b5f808515612b3157612b288989858a8a8a8a6132bc565b92509050612b42565b612b3f8989858a8989612595565b90505b6040517f7e1245980000000000000000000000000000000000000000000000000000000081526001600160a01b03808b1660048301528916602482015273e335d314bd4ef7dd44f103dc124fefb7ce63ec9590637e124598906044015f604051808303815f87803b158015612bb5575f5ffd5b505af1158015612bc7573d5f5f3e3d5ffd5b5050604080518a8152602081018690529081018490526001600160a01b0387811615156060830152808c1693508c1691507f4af79261273657864471fb85449a3a474b9a1d244358a91fea9dd79a12c9b36f9060800160405180910390a3505050505050505050565b6040517f268b4bae0000000000000000000000000000000000000000000000000000000081526001600160a01b038084166004830152821660248201525f9073e335d314bd4ef7dd44f103dc124fefb7ce63ec959063268b4bae906044016040805180830381865afa158015612ca8573d5f5f3e3d5ffd5b505050506040513d601f19601f82011682018060405250810190612ccc9190613ff1565b80519091506001600160a01b03163014612d12576040517f55a378b100000000000000000000000000000000000000000000000000000000815260040160405180910390fd5b61012c816020015163ffffffff1642612d2b91906144d2565b1015612306576040517f61de72ab00000000000000000000000000000000000000000000000000000000815260040160405180910390fd5b5f5f5f7fffffffffffffffffffffffffffffffffffffffffffffffffffffffffffffffff8503612d9d57612d978a8a611f1c565b90505f94505b84158015612da9575080155b15612dd757612dd08a8a8a612dbd8b61337f565b612dc7575f612dc9565b8a5b8a896120f6565b9150612e25565b5f8a8a8a8a8a89612de78e61337f565b604051602001612dfd97969594939291906144e5565b6040516020818303038152906040529050612e1c8a8a88858f8661341d565b935060025c9250505b5097509795505050505050565b6040805160a080820183525f8083526020808401829052838501829052606080850183905260809485018390526001600160a01b038b81168085526001808552948890208851808a018a52815484168152950154858501908152885196870189528c8316875293860181905285880152925190921691830191909152519181019190915290517f8720316d00000000000000000000000000000000000000000000000000000000815273bbbbbbbbbb9cc5e90e3b3af64bdaf62c37eeffcb90638720316d90612f0b90849088908890889060040161454f565b5f604051808303815f87803b158015612f22575f5ffd5b505af115801561083f573d5f5f3e3d5ffd5b5f5f60205f8451602086015f885af180612f53576040513d5f823e3d81fd5b50505f513d91508115612f6a578060011415612f77565b6001600160a01b0384163b155b156122cf576040517f5274afe70000000000000000000000000000000000000000000000000000000081526001600160a01b0385166004820152602401610544565b604080516001600160a01b038416602482015260448082018490528251808303909101815260649091019091526020810180517bffffffffffffffffffffffffffffffffffffffffffffffffffffffff167f095ea7b300000000000000000000000000000000000000000000000000000000179052613038848261354f565b6122cf576040516001600160a01b0384811660248301525f604483015261306c91869182169063095ea7b390606401612288565b6122cf8482612f34565b80825d5050565b6040805160a080820183525f8083526020808401829052838501829052606080850183905260809485018390526001600160a01b0389811680855260018085528886208951808b018b5281548516815291015481860190815289519788018a528b841688529487018290528689018290525182169286019290925291519484019490945284517f98476c2b00000000000000000000000000000000000000000000000000000000815273bbbbbbbbbb9cc5e90e3b3af64bdaf62c37eeffcb6004820152602481018790529089166044820152935191936398476c2b926064808301939282900301818387803b158015613174575f5ffd5b505af1158015613186573d5f5f3e3d5ffd5b50506040517f095ea7b300000000000000000000000000000000000000000000000000000000815273bbbbbbbbbb9cc5e90e3b3af64bdaf62c37eeffcb6004820152602481018590526001600160a01b038716925063095ea7b391506044016020604051808303815f875af1158015613201573d5f5f3e3d5ffd5b505050506040513d601f19601f820116820180604052508101906132259190614058565b506040517f238d657900000000000000000000000000000000000000000000000000000000815273bbbbbbbbbb9cc5e90e3b3af64bdaf62c37eeffcb9063238d65799061327a90849086908a906004016145d2565b5f604051808303815f87803b158015611611575f5ffd5b5f8161329e6001826144d2565b6132a88587613fa2565b6132b29190613d7f565b61090f9190613fb9565b5f5f5f8989898988886040516020016132da96959493929190614659565b60408051601f19818403018152908290527fe0232b42000000000000000000000000000000000000000000000000000000008252915073bbbbbbbbbb9cc5e90e3b3af64bdaf62c37eeffcb9063e0232b429061333e908b908a9086906004016146ba565b5f604051808303815f87803b158015613355575f5ffd5b505af1158015613367573d5f5f3e3d5ffd5b50505f5c9c60015c9c509a5050505050505050505050565b5f6001600160a01b03821633148015610f4e57506040517f46f74dce00000000000000000000000000000000000000000000000000000000815233600482015273e335d314bd4ef7dd44f103dc124fefb7ce63ec95906346f74dce90602401602060405180830381865afa1580156133f9573d5f5f3e3d5ffd5b505050506040513d601f19601f82011682018060405250810190610f4e9190614058565b5f5f6134a888886040805160a080820183525f8083526020808401829052838501829052606080850183905260809485018390526001600160a01b039788168084526001808452938790208751808901895281548b16815294015484840190815287519586018852978916855291840182905294830152519094169184019190915290519082015290565b6040517f20b76e8100000000000000000000000000000000000000000000000000000000815290915073bbbbbbbbbb9cc5e90e3b3af64bdaf62c37eeffcb906320b76e81906135039084908a908a908a908a906004016146e1565b60408051808303815f875af115801561351e573d5f5f3e3d5ffd5b505050506040513d601f19601f820116820180604052508101906135429190613e1d565b9998505050505050505050565b5f5f5f5f60205f8651602088015f8a5af192503d91505f51905082801561279d57508115613580578060011461279d565b50505050506001600160a01b03163b151590565b5f5f83601f8401126135a4575f5ffd5b50813567ffffffffffffffff8111156135bb575f5ffd5b6020830191508360208285010111156135d2575f5ffd5b9250929050565b5f5f5f604084860312156135eb575f5ffd5b83359250602084013567ffffffffffffffff811115613608575f5ffd5b61361486828701613594565b9497909650939450505050565b5f81518084528060208401602086015e5f602082860101526020601f19601f83011685010191505092915050565b602081525f6136616020830184613621565b9392505050565b6001600160a01b038116811461367c575f5ffd5b50565b5f5f83601f84011261368f575f5ffd5b50813567ffffffffffffffff8111156136a6575f5ffd5b6020830191508360208260051b85010111156135d2575f5ffd5b5f5f5f5f5f608086880312156136d4575f5ffd5b85356136df81613668565b945060208601356136ef81613668565b935060408601356136ff81613668565b9250606086013567ffffffffffffffff81111561371a575f5ffd5b6137268882890161367f565b969995985093965092949392505050565b5f5f5f5f6060858703121561374a575f5ffd5b843561375581613668565b9350602085013561376581613668565b9250604085013567ffffffffffffffff811115613780575f5ffd5b61378c87828801613594565b95989497509550505050565b5f5f5f606084860312156137aa575f5ffd5b83356137b581613668565b925060208401356137c581613668565b929592945050506040919091013590565b5f5f604083850312156137e7575f5ffd5b82356137f281613668565b9150602083013561380281613668565b809150509250929050565b5f5f6040838503121561381e575f5ffd5b823561382981613668565b946020939093013593505050565b5f5f5f5f6080858703121561384a575f5ffd5b843561385581613668565b9350602085013561386581613668565b93969395505050506040820135916060013590565b5f5f5f6060848603121561388c575f5ffd5b833561389781613668565b925060208401356138a781613668565b915060408401356138b781613668565b809150509250925092565b5f602082840312156138d2575f5ffd5b813561366181613668565b60a08101610f4e82846001600160a01b0381511682526001600160a01b0360208201511660208301526001600160a01b0360408201511660408301526001600160a01b036060820151166060830152608081015160808301525050565b801515811461367c575f5ffd5b5f5f60408385031215613958575f5ffd5b823561396381613668565b915060208301356138028161393a565b5f5f5f5f5f5f60a08789031215613988575f5ffd5b863561399381613668565b955060208701356139a381613668565b94506040870135935060608701359250608087013567ffffffffffffffff8111156139cc575f5ffd5b6139d889828a01613594565b979a9699509497509295939492505050565b5f5f5f5f5f5f5f60c0888a031215613a00575f5ffd5b8735613a0b81613668565b96506020880135613a1b81613668565b95506040880135613a2b81613668565b9450606088013593506080880135925060a088013567ffffffffffffffff811115613a54575f5ffd5b613a608a828b01613594565b989b979a50959850939692959293505050565b602080825282518282018190525f918401906040840190835b81811015613aaa578351835260209384019390920191600101613a8c565b509095945050505050565b5f5f5f5f5f5f5f5f60c0898b031215613acc575f5ffd5b8835613ad781613668565b97506020890135613ae781613668565b96506040890135955060608901359450608089013567ffffffffffffffff811115613b10575f5ffd5b613b1c8b828c01613594565b90955093505060a089013567ffffffffffffffff811115613b3b575f5ffd5b613b478b828c0161367f565b999c989b5096995094979396929594505050565b7f4e487b71000000000000000000000000000000000000000000000000000000005f52604160045260245ffd5b604051601f8201601f1916810167ffffffffffffffff81118282101715613bb157613bb1613b5b565b604052919050565b5f82601f830112613bc8575f5ffd5b813567ffffffffffffffff811115613be257613be2613b5b565b613bf56020601f19601f84011601613b88565b818152846020838601011115613c09575f5ffd5b816020850160208301375f918101602001919091529392505050565b5f5f5f5f5f5f5f60e0888a031215613c3b575f5ffd5b8735613c4681613668565b96506020880135613c5681613668565b95506040880135613c6681613668565b94506060880135613c7681613668565b93506080880135925060a088013567ffffffffffffffff811115613c98575f5ffd5b613ca48a828b01613bb9565b92505060c0880135613cb58161393a565b8091505092959891949750929550565b5f5f5f5f5f5f60c08789031215613cda575f5ffd5b8635613ce581613668565b95506020870135613cf581613668565b94506040870135613d0581613668565b935060608701359250608087013567ffffffffffffffff811115613d27575f5ffd5b613d3389828a01613bb9565b92505060a0870135613d4481613668565b809150509295509295509295565b7f4e487b71000000000000000000000000000000000000000000000000000000005f52601160045260245ffd5b80820180821115610f4e57610f4e613d52565b6101208101613df082886001600160a01b0381511682526001600160a01b0360208201511660208301526001600160a01b0360408201511660408301526001600160a01b036060820151166060830152608081015160808301525050565b60a082019590955260c08101939093526001600160a01b0391821660e08401521661010090910152919050565b5f5f60408385031215613e2e575f5ffd5b505080516020909101519092909150565b5f60208284031215613e4f575f5ffd5b815161366181613668565b6fffffffffffffffffffffffffffffffff8116811461367c575f5ffd5b5f6060828403128015613e88575f5ffd5b506040516060810167ffffffffffffffff81118282101715613eac57613eac613b5b565b604052825181526020830151613ec181613e5a565b60208201526040830151613ed481613e5a565b60408201529392505050565b5f60c0828403128015613ef1575f5ffd5b5060405160c0810167ffffffffffffffff81118282101715613f1557613f15613b5b565b6040528251613f2381613e5a565b81526020830151613f3381613e5a565b60208201526040830151613f4681613e5a565b60408201526060830151613f5981613e5a565b60608201526080830151613f6c81613e5a565b608082015260a0830151613f7f81613e5a565b60a08201529392505050565b5f60208284031215613f9b575f5ffd5b5051919050565b8082028115828204841417610f4e57610f4e613d52565b5f82613fec577f4e487b71000000000000000000000000000000000000000000000000000000005f52601260045260245ffd5b500490565b5f6040828403128015614002575f5ffd5b506040805190810167ffffffffffffffff8111828210171561402657614026613b5b565b604052825161403481613668565b8152602083015163ffffffff8116811461404c575f5ffd5b60208201529392505050565b5f60208284031215614068575f5ffd5b81516136618161393a565b5f5f5f60608486031215614085575f5ffd5b5050815160208301516040909301519094929350919050565b5f602082840312156140ae575f5ffd5b815167ffffffffffffffff8111156140c4575f5ffd5b8201601f810184136140d4575f5ffd5b805167ffffffffffffffff8111156140ee576140ee613b5b565b8060051b6140fe60208201613b88565b91825260208184018101929081019087841115614119575f5ffd5b6020850194505b8385101561413f57845180835260209586019590935090910190614120565b979650505050505050565b6001600160a01b0385168152836020820152826040820152608060608201525f61279d6080830184613621565b7f4e487b71000000000000000000000000000000000000000000000000000000005f52603260045260245ffd5b5f82357fffffffffffffffffffffffffffffffffffffffffffffffffffffffffffffffa18336030181126141d6575f5ffd5b9190910192915050565b5f5f83357fffffffffffffffffffffffffffffffffffffffffffffffffffffffffffffffe1843603018112614213575f5ffd5b83018035915067ffffffffffffffff82111561422d575f5ffd5b602001915060c0810236038213156135d2575f5ffd5b6001600160a01b038516815260e06020820181905281018390525f846101008301825b8681101561431957823561427981613668565b6001600160a01b03168252602083013561429281613668565b6001600160a01b0316602083015260408301356142ae81613668565b6001600160a01b0316604083015260608301356142ca81613668565b6001600160a01b031660608301526080838101359083015260a08301356142f081613e5a565b6fffffffffffffffffffffffffffffffff1660a083015260c09283019290910190600101614266565b50915061437a905060408301846001600160a01b0381511682526001600160a01b0360208201511660208301526001600160a01b0360408201511660408301526001600160a01b036060820151166060830152608081015160808301525050565b95945050505050565b6001600160a01b03871681526001600160a01b03861660208201526001600160a01b038516604082015283606082015282608082015260c060a08201525f6143ce60c0830184613621565b98975050505050505050565b8381526001600160a01b0383166020820152606060408201525f61437a6060830184613621565b6001600160a01b038516815283602082015260606040820152816060820152818360808301375f818301608090810191909152601f909201601f191601019392505050565b61449f81876001600160a01b0381511682526001600160a01b0360208201511660208301526001600160a01b0360408201511660408301526001600160a01b036060820151166060830152608081015160808301525050565b6001600160a01b03851660a08201528360c08201528260e08201526101206101008201525f61413f610120830184613621565b81810381811115610f4e57610f4e613d52565b6001600160a01b03881681526001600160a01b03871660208201526001600160a01b03861660408201526001600160a01b038516606082015283608082015260e060a08201525f61453960e0830185613621565b905082151560c083015298975050505050505050565b61010081016145ad82876001600160a01b0381511682526001600160a01b0360208201511660208301526001600160a01b0360408201511660408301526001600160a01b036060820151166060830152608081015160808301525050565b60a08201949094526001600160a01b0392831660c0820152911660e090910152919050565b61462b81856001600160a01b0381511682526001600160a01b0360208201511660208301526001600160a01b0360408201511660408301526001600160a01b036060820151166060830152608081015160808301525050565b60a08101929092526001600160a01b031660c082015261010060e082018190525f9082015261012001919050565b6001600160a01b03871681526001600160a01b03861660208201526001600160a01b038516604082015283606082015260c060808201525f61469e60c0830185613621565b90506001600160a01b03831660a0830152979650505050505050565b6001600160a01b0384168152826020820152606060408201525f61437a6060830184613621565b61473a81876001600160a01b0381511682526001600160a01b0360208201511660208301526001600160a01b0360408201511660408301526001600160a01b036060820151166060830152608081015160808301525050565b8460a08201528360c08201526001600160a01b03831660e08201526101206101008201525f61413f61012083018461362156fea164736f6c634300081d000a","linkReferences":{}},"methodIdentifiers":{"allocateAndEnterPosition(address,address,uint256,uint256,bytes,(address,uint256,((address,address,address,address,uint256),uint128)[])[])":"f7d6f6da","allocateAndMigratePosition(address,address,address,(address,uint256,((address,address,address,address,uint256),uint128)[])[])":"1e164b63","balanceOfBorrowShares(address,address)":"f79d4387","balanceOfCollateral(address,address)":"da3a855f","claimRewards(address,address)":"f1e42ccd","convertBorrowSharesToAssets(address,uint256)":"98139810","enterPosition(address,address,uint256,uint256,bytes)":"de13c617","exitPosition(address,address,address,uint256,uint256,bytes)":"ef9a0b61","forceWithdraw(address,address,bytes)":"4a7f87e8","healthFactor(address,address)":"576f5c40","initializeMarket(address,address,uint256)":"4fb2a320","initiateWithdraw(address,address,bytes)":"c0b5de76","isApproved(address,address)":"a389783e","liquidate(address,address,uint256,uint256)":"c1342574","marketParams(address)":"da35e283","migratePosition(address,address,address)":"c139cc98","name()":"06fdde03","onMorphoFlashLoan(uint256,bytes)":"31f57072","onMorphoLiquidate(uint256,bytes)":"cf7ea196","onMorphoRepay(uint256,bytes)":"05b4591c","setApproval(address,bool)":"db9b7170"},"id":68}